{"contracts/eval/Checker.sol":{"Checker":{"abi":[{"inputs":[{"internalType":"address","name":"s","type":"address"}],"stateMutability":"nonpayable","type":"constructor"},{"inputs":[],"name":"GPCASE","outputs":[{"internalType":"uint256","name":"","type":"uint256"}],"stateMutability":"view","type":"function"},{"inputs":[],"name":"MAXGAS","outputs":[{"internalType":"uint256","name":"","type":"uint256"}],"stateMutability":"view","type":"function"},{"inputs":[{"components":[{"internalType":"bytes","name":"x","type":"bytes"},{"internalType":"bytes","name":"y","type":"bytes"}],"internalType":"struct Checker.Case[]","name":"cs","type":"tuple[]"}],"name":"eval","outputs":[{"internalType":"uint256","name":"min","type":"uint256"}],"stateMutability":"view","type":"function"}],"evm":{"bytecode":{"linkReferences":{},"object":"60a060405234801561001057600080fd5b5060405161046b38038061046b83398101604081905261002f91610040565b6001600160a01b0316608052610070565b60006020828403121561005257600080fd5b81516001600160a01b038116811461006957600080fd5b9392505050565b6080516103e061008b600039600061017d01526103e06000f3fe608060405234801561001057600080fd5b50600436106100415760003560e01c806338def70b146100465780639ded1f4414610062578063da43e72e14610075575b600080fd5b6100506201000081565b60405190815260200160405180910390f35b61005061007036600461023f565b61007f565b6100506220000081565b6000805b8281101561011357620100005b8061009c8460016102c9565b101561010057600060026100b083866102c9565b6100ba91906102dc565b90506100e98686858181106100d1576100d16102fe565b90506020028101906100e39190610314565b8261016f565b156100f6578091506100fa565b8093505b50610090565b508061010b81610334565b915050610083565b50620100006101238260016102c9565b1061015d5760405162461bcd60e51b815260206004820152600660248201526519985a5b195960d21b604482015260640160405180910390fd5b8061016781610334565b949350505050565b600080806001600160a01b037f000000000000000000000000000000000000000000000000000000000000000016846101a8878061034d565b6040516101b692919061039a565b6000604051808303818686fa925050503d80600081146101f2576040519150601f19603f3d011682016040523d82523d6000602084013e6101f7565b606091505b50915091508180156102345750808051906020012085806020019061021c919061034d565b60405161022a92919061039a565b6040518091039020145b925050505b92915050565b6000806020838503121561025257600080fd5b82356001600160401b038082111561026957600080fd5b818501915085601f83011261027d57600080fd5b81358181111561028c57600080fd5b8660208260051b85010111156102a157600080fd5b60209290920196919550909350505050565b634e487b7160e01b600052601160045260246000fd5b80820180821115610239576102396102b3565b6000826102f957634e487b7160e01b600052601260045260246000fd5b500490565b634e487b7160e01b600052603260045260246000fd5b60008235603e1983360301811261032a57600080fd5b9190910192915050565b600060018201610346576103466102b3565b5060010190565b6000808335601e1984360301811261036457600080fd5b8301803591506001600160401b0382111561037e57600080fd5b60200191503681900382131561039357600080fd5b9250929050565b818382376000910190815291905056fea264697066735822122076dcb86798a4f6b6ea9137649339547bc9839a9f2a54bf007b5393f330b7aacc64736f6c63430008100033","opcodes":"PUSH1 0xA0 PUSH1 0x40 MSTORE CALLVALUE DUP1 ISZERO PUSH2 0x10 JUMPI PUSH1 0x0 DUP1 REVERT JUMPDEST POP PUSH1 0x40 MLOAD PUSH2 0x46B CODESIZE SUB DUP1 PUSH2 0x46B DUP4 CODECOPY DUP2 ADD PUSH1 0x40 DUP2 SWAP1 MSTORE PUSH2 0x2F SWAP2 PUSH2 0x40 JUMP JUMPDEST PUSH1 0x1 PUSH1 0x1 PUSH1 0xA0 SHL SUB AND PUSH1 0x80 MSTORE PUSH2 0x70 JUMP JUMPDEST PUSH1 0x0 PUSH1 0x20 DUP3 DUP5 SUB SLT ISZERO PUSH2 0x52 JUMPI PUSH1 0x0 DUP1 REVERT JUMPDEST DUP2 MLOAD PUSH1 0x1 PUSH1 0x1 PUSH1 0xA0 SHL SUB DUP2 AND DUP2 EQ PUSH2 0x69 JUMPI PUSH1 0x0 DUP1 REVERT JUMPDEST SWAP4 SWAP3 POP POP POP JUMP JUMPDEST PUSH1 0x80 MLOAD PUSH2 0x3E0 PUSH2 0x8B PUSH1 0x0 CODECOPY PUSH1 0x0 PUSH2 0x17D ADD MSTORE PUSH2 0x3E0 PUSH1 0x0 RETURN INVALID PUSH1 0x80 PUSH1 0x40 MSTORE CALLVALUE DUP1 ISZERO PUSH2 0x10 JUMPI PUSH1 0x0 DUP1 REVERT JUMPDEST POP PUSH1 0x4 CALLDATASIZE LT PUSH2 0x41 JUMPI PUSH1 0x0 CALLDATALOAD PUSH1 0xE0 SHR DUP1 PUSH4 0x38DEF70B EQ PUSH2 0x46 JUMPI DUP1 PUSH4 0x9DED1F44 EQ PUSH2 0x62 JUMPI DUP1 PUSH4 0xDA43E72E EQ PUSH2 0x75 JUMPI JUMPDEST PUSH1 0x0 DUP1 REVERT JUMPDEST PUSH2 0x50 PUSH3 0x10000 DUP2 JUMP JUMPDEST PUSH1 0x40 MLOAD SWAP1 DUP2 MSTORE PUSH1 0x20 ADD PUSH1 0x40 MLOAD DUP1 SWAP2 SUB SWAP1 RETURN JUMPDEST PUSH2 0x50 PUSH2 0x70 CALLDATASIZE PUSH1 0x4 PUSH2 0x23F JUMP JUMPDEST PUSH2 0x7F JUMP JUMPDEST PUSH2 0x50 PUSH3 0x200000 DUP2 JUMP JUMPDEST PUSH1 0x0 DUP1 JUMPDEST DUP3 DUP2 LT ISZERO PUSH2 0x113 JUMPI PUSH3 0x10000 JUMPDEST DUP1 PUSH2 0x9C DUP5 PUSH1 0x1 PUSH2 0x2C9 JUMP JUMPDEST LT ISZERO PUSH2 0x100 JUMPI PUSH1 0x0 PUSH1 0x2 PUSH2 0xB0 DUP4 DUP7 PUSH2 0x2C9 JUMP JUMPDEST PUSH2 0xBA SWAP2 SWAP1 PUSH2 0x2DC JUMP JUMPDEST SWAP1 POP PUSH2 0xE9 DUP7 DUP7 DUP6 DUP2 DUP2 LT PUSH2 0xD1 JUMPI PUSH2 0xD1 PUSH2 0x2FE JUMP JUMPDEST SWAP1 POP PUSH1 0x20 MUL DUP2 ADD SWAP1 PUSH2 0xE3 SWAP2 SWAP1 PUSH2 0x314 JUMP JUMPDEST DUP3 PUSH2 0x16F JUMP JUMPDEST ISZERO PUSH2 0xF6 JUMPI DUP1 SWAP2 POP PUSH2 0xFA JUMP JUMPDEST DUP1 SWAP4 POP JUMPDEST POP PUSH2 0x90 JUMP JUMPDEST POP DUP1 PUSH2 0x10B DUP2 PUSH2 0x334 JUMP JUMPDEST SWAP2 POP POP PUSH2 0x83 JUMP JUMPDEST POP PUSH3 0x10000 PUSH2 0x123 DUP3 PUSH1 0x1 PUSH2 0x2C9 JUMP JUMPDEST LT PUSH2 0x15D JUMPI PUSH1 0x40 MLOAD PUSH3 0x461BCD PUSH1 0xE5 SHL DUP2 MSTORE PUSH1 0x20 PUSH1 0x4 DUP3 ADD MSTORE PUSH1 0x6 PUSH1 0x24 DUP3 ADD MSTORE PUSH6 0x19985A5B1959 PUSH1 0xD2 SHL PUSH1 0x44 DUP3 ADD MSTORE PUSH1 0x64 ADD PUSH1 0x40 MLOAD DUP1 SWAP2 SUB SWAP1 REVERT JUMPDEST DUP1 PUSH2 0x167 DUP2 PUSH2 0x334 JUMP JUMPDEST SWAP5 SWAP4 POP POP POP POP JUMP JUMPDEST PUSH1 0x0 DUP1 DUP1 PUSH1 0x1 PUSH1 0x1 PUSH1 0xA0 SHL SUB PUSH32 0x0 AND DUP5 PUSH2 0x1A8 DUP8 DUP1 PUSH2 0x34D JUMP JUMPDEST PUSH1 0x40 MLOAD PUSH2 0x1B6 SWAP3 SWAP2 SWAP1 PUSH2 0x39A JUMP JUMPDEST PUSH1 0x0 PUSH1 0x40 MLOAD DUP1 DUP4 SUB DUP2 DUP7 DUP7 STATICCALL SWAP3 POP POP POP RETURNDATASIZE DUP1 PUSH1 0x0 DUP2 EQ PUSH2 0x1F2 JUMPI PUSH1 0x40 MLOAD SWAP2 POP PUSH1 0x1F NOT PUSH1 0x3F RETURNDATASIZE ADD AND DUP3 ADD PUSH1 0x40 MSTORE RETURNDATASIZE DUP3 MSTORE RETURNDATASIZE PUSH1 0x0 PUSH1 0x20 DUP5 ADD RETURNDATACOPY PUSH2 0x1F7 JUMP JUMPDEST PUSH1 0x60 SWAP2 POP JUMPDEST POP SWAP2 POP SWAP2 POP DUP2 DUP1 ISZERO PUSH2 0x234 JUMPI POP DUP1 DUP1 MLOAD SWAP1 PUSH1 0x20 ADD KECCAK256 DUP6 DUP1 PUSH1 0x20 ADD SWAP1 PUSH2 0x21C SWAP2 SWAP1 PUSH2 0x34D JUMP JUMPDEST PUSH1 0x40 MLOAD PUSH2 0x22A SWAP3 SWAP2 SWAP1 PUSH2 0x39A JUMP JUMPDEST PUSH1 0x40 MLOAD DUP1 SWAP2 SUB SWAP1 KECCAK256 EQ JUMPDEST SWAP3 POP POP POP JUMPDEST SWAP3 SWAP2 POP POP JUMP JUMPDEST PUSH1 0x0 DUP1 PUSH1 0x20 DUP4 DUP6 SUB SLT ISZERO PUSH2 0x252 JUMPI PUSH1 0x0 DUP1 REVERT JUMPDEST DUP3 CALLDATALOAD PUSH1 0x1 PUSH1 0x1 PUSH1 0x40 SHL SUB DUP1 DUP3 GT ISZERO PUSH2 0x269 JUMPI PUSH1 0x0 DUP1 REVERT JUMPDEST DUP2 DUP6 ADD SWAP2 POP DUP6 PUSH1 0x1F DUP4 ADD SLT PUSH2 0x27D JUMPI PUSH1 0x0 DUP1 REVERT JUMPDEST DUP2 CALLDATALOAD DUP2 DUP2 GT ISZERO PUSH2 0x28C JUMPI PUSH1 0x0 DUP1 REVERT JUMPDEST DUP7 PUSH1 0x20 DUP3 PUSH1 0x5 SHL DUP6 ADD ADD GT ISZERO PUSH2 0x2A1 JUMPI PUSH1 0x0 DUP1 REVERT JUMPDEST PUSH1 0x20 SWAP3 SWAP1 SWAP3 ADD SWAP7 SWAP2 SWAP6 POP SWAP1 SWAP4 POP POP POP POP JUMP JUMPDEST PUSH4 0x4E487B71 PUSH1 0xE0 SHL PUSH1 0x0 MSTORE PUSH1 0x11 PUSH1 0x4 MSTORE PUSH1 0x24 PUSH1 0x0 REVERT JUMPDEST DUP1 DUP3 ADD DUP1 DUP3 GT ISZERO PUSH2 0x239 JUMPI PUSH2 0x239 PUSH2 0x2B3 JUMP JUMPDEST PUSH1 0x0 DUP3 PUSH2 0x2F9 JUMPI PUSH4 0x4E487B71 PUSH1 0xE0 SHL PUSH1 0x0 MSTORE PUSH1 0x12 PUSH1 0x4 MSTORE PUSH1 0x24 PUSH1 0x0 REVERT JUMPDEST POP DIV SWAP1 JUMP JUMPDEST PUSH4 0x4E487B71 PUSH1 0xE0 SHL PUSH1 0x0 MSTORE PUSH1 0x32 PUSH1 0x4 MSTORE PUSH1 0x24 PUSH1 0x0 REVERT JUMPDEST PUSH1 0x0 DUP3 CALLDATALOAD PUSH1 0x3E NOT DUP4 CALLDATASIZE SUB ADD DUP2 SLT PUSH2 0x32A JUMPI PUSH1 0x0 DUP1 REVERT JUMPDEST SWAP2 SWAP1 SWAP2 ADD SWAP3 SWAP2 POP POP JUMP JUMPDEST PUSH1 0x0 PUSH1 0x1 DUP3 ADD PUSH2 0x346 JUMPI PUSH2 0x346 PUSH2 0x2B3 JUMP JUMPDEST POP PUSH1 0x1 ADD SWAP1 JUMP JUMPDEST PUSH1 0x0 DUP1 DUP4 CALLDATALOAD PUSH1 0x1E NOT DUP5 CALLDATASIZE SUB ADD DUP2 SLT PUSH2 0x364 JUMPI PUSH1 0x0 DUP1 REVERT JUMPDEST DUP4 ADD DUP1 CALLDATALOAD SWAP2 POP PUSH1 0x1 PUSH1 0x1 PUSH1 0x40 SHL SUB DUP3 GT ISZERO PUSH2 0x37E JUMPI PUSH1 0x0 DUP1 REVERT JUMPDEST PUSH1 0x20 ADD SWAP2 POP CALLDATASIZE DUP2 SWAP1 SUB DUP3 SGT ISZERO PUSH2 0x393 JUMPI PUSH1 0x0 DUP1 REVERT JUMPDEST SWAP3 POP SWAP3 SWAP1 POP JUMP JUMPDEST DUP2 DUP4 DUP3 CALLDATACOPY PUSH1 0x0 SWAP2 ADD SWAP1 DUP2 MSTORE SWAP2 SWAP1 POP JUMP INVALID LOG2 PUSH5 0x6970667358 0x22 SLT KECCAK256 PUSH23 0xDCB86798A4F6B6EA9137649339547BC9839A9F2A54BF00 PUSH28 0x5393F330B7AACC64736F6C6343000810003300000000000000000000 "},"methodIdentifiers":{"GPCASE()":"da43e72e","MAXGAS()":"38def70b","eval((bytes,bytes)[])":"9ded1f44"}}}}}