{
  "_format": "hh-sol-artifact-1",
  "contractName": "Checker",
  "sourceName": "contracts/eval/Checker.sol",
  "abi": [
    {
      "inputs": [
        {
          "internalType": "address",
          "name": "s",
          "type": "address"
        }
      ],
      "stateMutability": "nonpayable",
      "type": "constructor"
    },
    {
      "inputs": [],
      "name": "GPCASE",
      "outputs": [
        {
          "internalType": "uint256",
          "name": "",
          "type": "uint256"
        }
      ],
      "stateMutability": "view",
      "type": "function"
    },
    {
      "inputs": [],
      "name": "MAXGAS",
      "outputs": [
        {
          "internalType": "uint256",
          "name": "",
          "type": "uint256"
        }
      ],
      "stateMutability": "view",
      "type": "function"
    },
    {
      "inputs": [
        {
          "components": [
            {
              "internalType": "bytes",
              "name": "x",
              "type": "bytes"
            },
            {
              "internalType": "bytes",
              "name": "y",
              "type": "bytes"
            }
          ],
          "internalType": "struct Checker.Case[]",
          "name": "cs",
          "type": "tuple[]"
        }
      ],
      "name": "eval",
      "outputs": [
        {
          "internalType": "uint256",
          "name": "min",
          "type": "uint256"
        }
      ],
      "stateMutability": "view",
      "type": "function"
    }
  ],
  "bytecode": "0x60a060405234801561001057600080fd5b5060405161046b38038061046b83398101604081905261002f91610040565b6001600160a01b0316608052610070565b60006020828403121561005257600080fd5b81516001600160a01b038116811461006957600080fd5b9392505050565b6080516103e061008b600039600061017d01526103e06000f3fe608060405234801561001057600080fd5b50600436106100415760003560e01c806338def70b146100465780639ded1f4414610062578063da43e72e14610075575b600080fd5b6100506201000081565b60405190815260200160405180910390f35b61005061007036600461023f565b61007f565b6100506220000081565b6000805b8281101561011357620100005b8061009c8460016102c9565b101561010057600060026100b083866102c9565b6100ba91906102dc565b90506100e98686858181106100d1576100d16102fe565b90506020028101906100e39190610314565b8261016f565b156100f6578091506100fa565b8093505b50610090565b508061010b81610334565b915050610083565b50620100006101238260016102c9565b1061015d5760405162461bcd60e51b815260206004820152600660248201526519985a5b195960d21b604482015260640160405180910390fd5b8061016781610334565b949350505050565b600080806001600160a01b037f000000000000000000000000000000000000000000000000000000000000000016846101a8878061034d565b6040516101b692919061039a565b6000604051808303818686fa925050503d80600081146101f2576040519150601f19603f3d011682016040523d82523d6000602084013e6101f7565b606091505b50915091508180156102345750808051906020012085806020019061021c919061034d565b60405161022a92919061039a565b6040518091039020145b925050505b92915050565b6000806020838503121561025257600080fd5b82356001600160401b038082111561026957600080fd5b818501915085601f83011261027d57600080fd5b81358181111561028c57600080fd5b8660208260051b85010111156102a157600080fd5b60209290920196919550909350505050565b634e487b7160e01b600052601160045260246000fd5b80820180821115610239576102396102b3565b6000826102f957634e487b7160e01b600052601260045260246000fd5b500490565b634e487b7160e01b600052603260045260246000fd5b60008235603e1983360301811261032a57600080fd5b9190910192915050565b600060018201610346576103466102b3565b5060010190565b6000808335601e1984360301811261036457600080fd5b8301803591506001600160401b0382111561037e57600080fd5b60200191503681900382131561039357600080fd5b9250929050565b818382376000910190815291905056fea264697066735822122076dcb86798a4f6b6ea9137649339547bc9839a9f2a54bf007b5393f330b7aacc64736f6c63430008100033",
  "linkReferences": {},
  "deployedLinkReferences": {}
}